:10000000CAC10000F9C10000F7C10000F5C100003D
:10001000F3C10000F1C10000EFC10000EDC100001C
:10002000EBC100000C94063A0C94063A0C94063A84
:10003000E3C10000E1C10000DFC10000DDC100003C
:10004000DBC10000D9C10000D7C10000D5C100004C
:10005000D3C10000D1C10000CFC100000C949B3F70
:10006000CBC100000C9492350C946935C5C10000D9
:10007000C3C10000C1C10000BFC10000BDC100007C
:10008000BBC10000B9C10000B7C10000B5C100008C
:100090000C9433350C940A35AFC100000C94103A1F
:1000A000ABC10000A9C10000A7C10000A5C10000AC
:1000B000A3C10000A1C100009FC100009DC10000BC
:1000C0009BC1000099C1000097C1000095C10000CC
:1000D00093C1000091C100008FC100008DC10000DC
:1000E0008BC10000C641DA41F04106421C421F426A
:1000F0002242254228422B422E423142344237428C
:100100003A423F424242454248424A424E425042AF
:100110005342564259425C42DC44E544DF44E244E7
:10012000E544E844EB44EE44F144F444F744FA4433
:10013000FD440045034508450B450E451145134553
:1001400017451A451D45204523453045133C163CAF
:10015000053C093C0F3C4D3C1A3C1E3C243C283CD1
:100160002C3C323C363C3A3C4D3C403C443C483CC8
:1001700007634236B79BD8A71A39685618AEBAAB90
:10018000558C1D3CB7CC5763BD6DEDFD753EF61724
:100190007231BF000000803F08000000BE92244979
:1001A000123EABAAAA2ABECDCCCC4C3E00000080A9
:1001B000BEABAAAAAA3E00000000BF000000803F1C
:1001C0000000000000084178D3BB4387D1133D19DC
:1001D0000E3CC3BD4282AD2B3E68EC8276BED98F09
:1001E000E1A93E4C80EFFFBE01C4FF7F3F0000004D
:1001F000000001021020200808102040102040803C
:1002000002010201080402010102040810204080DA
:100210008040201008040201800402018040201068
:1002200008040201080402010102040810204080B1
:100230000102040810204080000022002500280050
:100240002B002E00310034000201000005010801DE
:100250000B0105050505070508080808020202024A
:100260000A0A080804040404010101010101010152
:100270000303030303030303040707070C0C0C0C1D
:100280000C0C0C0C02020202060606060606060606
:100290000B0B0B0B0B0B0B0BFF0000008B0000007C
:1002A0008B0000008B0000008B0000008B00000022
:1002B0008B0000008B000000FF0000008B0000009E
:1002C000EBCE8700EBCE8700E6D8AD00FFFFFF0046
:1002D000E6D8AD00EBCE8700701919008B00000046
:1002E00070191900800000008B000000CD00000094
:1002F000578B2E0080800000A09E5F00FF00000052
:100300008B8B0000ED956400D4FF7F00578B2E008F
:10031000FFFF0000FACE8700000021002400270024
:100320002A002D0030003300010100000401070104
:100330000A01000020002300260029002C002F00C5
:1003400032000001000003010601090100000A0B50
:1003500002090C0D0E080703040100000000000054
:10036000000000000000000000000000000000008D
:10037000000000000000000012111000000000004A
:10038000000000000000000000000000000000006D
:1003900000008C45F24611241FBECFEFD1E2DEBF34
:1003A000CDBF00E00CBF15E0A0E0B2E0ECE5FCE959
:1003B00000E00BBF02C007900D92A438B107D9F737
:1003C00020E1A4E8B5E001C01D92AB35B207E1F72A
:1003D00011E0CAECD1E000E006C021970109802FAE
:1003E000FE010E94FA4BC93CD10780E00807A9F73B
:1003F0000E94E53F0C941D4E03CE0E94094E0F93C0
:100400001F93CF93DF93EC0188819981009729F0A6
:100410002A813B812617370788F48B016F5F7F4F56
:100420000E94294D009761F0998388831B830A837A
:100430002C813D81232B11F4FC01108281E001C04D
:1004400080E0DF91CF911F910F910895CF93DF93BB
:10045000EC0188819981009711F00E94A04C1982CB
:1004600018821D821C821B821A82DF91CF9108950F
:10047000DF92EF92FF920F931F93CF93DF9300D001
:10048000CDB7DEB788ED92E00DE71BE0D801FC01A7
:1004900045915591659174916C9311965C93119768
:1004A00012964C931297049613962BE0AD3AB2072E
:1004B00071F781E090E09093AC078093AB07809157
:1004C000A30781110DC08FE997E00E949F3B85E053
:1004D00090E09093A2078093A10781E08093A30707
:1004E0008FE997E00E94F829811118C08091970741
:1004F00081112DC08FE897E00E94AE3B84E690E02A
:10050000A0E0B0E08093930790939407A0939507A1
:10051000B093960781E08093970719C08DE4E82E89
:100520008BE0F82EDD24DA940E944A2A8983DA824D
:10053000DB82B701CE0101960E94683783E0E80EA6
:10054000F11C9DE7E9169BE0F90671F7CFCF8FE824
:1005500097E00E941A2A811118C0809187078111A3
:1005600038C08FE797E00E94AE3B84E190E0A0E0C6
:10057000B0E08093830790938407A0938507B0939E
:10058000860781E08093870724C0EDE4FBE080E0EC
:10059000D8019C9121919217A9F0921718F49F5FAE
:1005A0009C938F5FD8019C91291750F43FEF390F2E
:1005B0008F5F231710F03C9303C09250D8019C9397
:1005C000883158F60F5F1F4FBBE00D3A1B0701F74C
:1005D000C4CF8FE797E00E941A2A882309F4BDC090
:1005E0000E948F3F9B01AC0160E070EF8AE090E0D9
:1005F0000E94C44B292F96FD2095E22FEF732F7098
:1006000096FD2F5FE695E695E695E670F0E0E85BEF
:10061000FD4F3181329F202D312D112422952F70D5
:100620003295307F232B8081280F97FD219520580C
:100630003EE1239F020E20E0211D112484E1820F60
:1006400090E0A0E0B0E08093830790938407A093AC
:100650008507B09386076FEE86E89FE00E94DA1B5D
:1006600040913908242F220F01E010E06DE77BE074
:10067000CE0101960E941A3889818093E00F8A8109
:100680008093E10F8B818093E20F40913908242FF2
:10069000220F6DE77BE0CE0101960E941A38898116
:1006A00080932C0F8A8180932D0F8B8180932E0F46
:1006B000E4E3F0E1A0E8BFE080818383818184836B
:1006C000828185838C9113968C93139711968C91CC
:1006D000119714968C93149712968C9112971596E5
:1006E0008C931597339713972FE0ED3DF20721F781
:1006F000E6E8FFE0A2EDBEE0838180838481818310
:100700008581828313968C9113978C9314968C9188
:10071000149711968C93119715968C9115971296A4
:100720008C931297339613968FE0E03EF80721F7EB
:10073000109137080E944A2A811710F40E943D3B0D
:100740008BE30E94783D925097FF03C0919581956D
:10075000910990933A0880933908E6E8FFE0A2ED0A
:10076000BEE080818C93818111968C931197828158
:1007700012968C9312973396139690E1EA33F90709
:1007800081F78CE38093800A0E94AF1A0F900F903C
:100790000F90DF91CF911F910F91FF90EF90DF901D
:1007A00008954F925F926F927F928F929F92AF9235
:1007B000BF92CF92DF92EF92FF920F931F93CF934E
:1007C000DF938BE30E94783D925097FF03C0919591
:1007D000819591098B30910514F00A9702C080E051
:1007E00090E0409118025091190267E0649F9001D7
:1007F000659F300D1124820F931FF3E09595879527
:10080000FA95E1F790931902809318028AE30E9407
:10081000783D925097FF03C09195819591098B3057
:1008200091051CF0EC012A9702C0C0E0D0E0D09303
:100830007A07C0937907209114023091150247E09E
:10084000429FC001439F900D11248C0F9D1FE3E038
:1008500095958795EA95E1F7909315028093140298
:100860004091CA0D5091CB0D841B950B24E6289F17
:10087000B001299F700D1124072E000C880B990BD5
:100880002091120230911302241B350B032E000C11
:10089000440B550B0E94C5482436310514F023E65D
:1008A00030E037FF02C020E030E04091E605809163
:1008B000E4059091E505442381F0281739076CF48D
:1008C0001092E6059093E3058093E205909104026F
:1008D00081E089278093040206C0821793075CF4A5
:1008E00081E08093E6058091E7059091E80590937B
:1008F000E1058093E0053093E5052093E4058091C0
:10090000E605811135C0609104028091E205909165
:10091000E3054091E0055091E105821B930B6623AE
:1009200059F097FD019695958795840F951F9093A3
:10093000E8058093E7050AC097FD01969595879590
:10094000481B590B5093E8054093E7058091E70554
:100950009091E80597FF03C08C599F4F05C08436DE
:10096000910534F0855691099093E8058093E70549
:100970000091E7051091E805C90137FD01969595AD
:1009800087957801E81AF90A35952795020F131F04
:10099000F7FE03C084E6E80EF11C0436110514F0DE
:1009A0000456110980907B0790907C07782C99EE73
:1009B000A92E95E0B92EC12CD12CE016F1063CF4FD
:1009C000EC14FD04B4F4C016D10654F050C10E1559
:1009D0001F0594F4EC14FD041CF0C016D10664F459
:1009E000872D0E94FE23F5016083718382839383A8
:1009F00008C00E151F058CF3F501108211821282BA
:100A00001382FFEFCF1ADF0A84E0A80EB11CE4E6E0
:100A1000CE16D10491F600E010E05801C12CD12C83
:100A20007601C701B6012FE030E040E050E00E94BF
:100A3000C548220F331F220F331FF901E751FA4F28
:100A40004080518062807380A3019201B50182ECE5
:100A50009BE00E94C835A3019201B5018DEA9BE09D
:100A60000E94C835F4E6CF0ED11CE11CF11C8FEFBB
:100A7000A81AB80AECEDCE16E5E0DE06E104F104B2
:100A800081F6015F1F4F0C33110539F682EC9BE0B4
:100A90000E948E368DEA9BE00E948E3680917D0703
:100AA00090917E0701968B3091052CF490937E07F0
:100AB00080937D0715C010927E0710927D07FFEF8F
:100AC0008F1A9F0A8FEF8816910409F02CF49092E8
:100AD0007C0780927B0704C010927C0710927B07F2
:100AE0008091CF0EE82FF0E0EE0FFF1FE15BF14F9A
:100AF000D183C0838F5F803418F48093CF0E02C0FF
:100B00001092CF0E80914F0E9091500EE1E5FEE0D5
:100B10006FEC7EE09C01419151914817590728F0F4
:100B20002417350718F49A0101C0CA016E177F0710
:100B300091F7A901481B590B4C33510518F49C013E
:100B4000245C3F4FE0914D0EF0914E0E4FE34E9FCF
:100B5000B0014F9F700D1124860F971F76E0969578
:100B600087957A95E1F790934E0E80934D0E6091A4
:100B7000160270911702469FC001479F900D1124E5
:100B8000280F391FE6E036952795EA95E1F730936F
:100B90001702209316028091CF0EE82FF0E0EE0F9F
:100BA000FF1FE15BF14FD183C0838F5F803418F466
:100BB0008093CF0E02C01092CF0E8091CC0D9091F9
:100BC000CD0DEEECFDE06CE47EE09C014191519195
:100BD0004817590728F02417350718F49A0101C05F
:100BE000CA016E177F0791F7A901481B590B4C33B7
:100BF000510518F49C01245C3F4FE091CA0DF0911F
:100C0000CB0D4FE34E9FB0014F9F700D1124860F07
:100C1000971F56E0969587955A95E1F79093CB0DDF
:100C20008093CA0D6091120270911302469FC00119
:100C3000479F900D1124280F391F66E036952795A0
:100C40006A95E1F73093130220931202DF91CF915E
:100C50001F910F91FF90EF90DF90CF90BF90AF90DA
:100C60009F908F907F906F905F904F9008950E159A
:100C70001F050CF0C1CEB4CE9F92AF92BF92CF921F
:100C8000DF92EF92FF920F931F93CF93DF9300D0E9
:100C900000D0CDB7DEB78091D805811113C080EDAB
:100CA00095E00E94AE3B88EE93E0A0E0B0E0809338
:100CB000D4059093D505A093D605B093D70581E0D0
:100CC0008093D80580ED95E00E941A2A882361F070
:100CD00080913508909136089093340880933308BA
:100CE00010923608109235080E94A2158091C8050E
:100CF000811113C080EC95E00E94AE3B84E190E04E
:100D0000A0E0B0E08093C4059093C505A093C6050C
:100D1000B093C70581E08093C80580EC95E00E9400
:100D20001A2A811114C00E94AF1A26960FB6F894A1
:100D3000DEBF0FBECDBFDF91CF911F910F91FF900E
:100D4000EF90DF90CF90BF90AF909F90089506E80E
:100D50001FE0FAE3EF2EF0E1FF2E6801BB24BA9406
:100D600080913708880F90913208998399249A943A
:100D7000BA828B83B601CE0101960E94683783E068
:100D8000C80ED11CEC14FD0459F760910502709156
:100D900006026115710579F16031710509F448C0E9
:100DA0006F3FAFEF7A0709F046C00E9458472CE327
:100DB00030E040E050E00E94C548709331086093F5
:100DC000300820913308309134084AE0429FC00136
:100DD000439F900D11246FEF70E00E94E74B8093CA
:100DE0002F08109206021092050280913208885F47
:100DF000809332081DC080912F0889839A829B823C
:100E00006091300870913108CB01880F991F680FED
:100E1000791F6A57704FCE0101960E946837809102
:100E200005029091060201969093060280930502B6
:100E3000E2EDFEE05FC080912F088C839D82AA24A2
:100E4000AA94B12CC5010E94E74B660F6E83BE01C8
:100E50006F5F7F4FCE0104960E9468372091300863
:100E6000309131088091050290910602820F931F04
:100E7000CC962CE3C22ED12CB6010E94E74B9C01EC
:100E8000220F331F820F931FBE016F5F7F4F8A5760
:100E9000904F0E94E0296091050270910602C50101
:100EA0000E94E74B660F80912F088C839D826E8392
:100EB000BE016F5F7F4FCE0104960E94683780911C
:100EC0003008909131082091050230910602821B72
:100ED000930BCC96B6010E94E74B9C01220F331F67
:100EE000820F931FBE016F5F7F4F8A57904F0E9402
:100EF000E02995CFD8018C91808311968C91119720
:100F0000818312968C9182830D5F1F4F3396E0167A
:100F1000F10681F708CFAF92BF92CF92DF92EF92A6
:100F2000FF920F931F93CF93DF938BE30E94783D43
:100F3000925097FF03C09195819591098B3091054F
:100F40001CF0EC012A9702C0C0E0D0E080911802AA
:100F50009091190227E0289FB001299F700D11245C
:100F60006C0F7D1F03E0759567950A95E1F7709307
:100F700019026093180240914D0E50914E0E641B61
:100F8000750B86E0660F771F8A95E1F7072E000C38
:100F9000880B990B2091160230911702241B350BF8
:100FA000032E000C440B550B0E94C548213431051B
:100FB00014F020E430E0790137FF02C0E12CF12C7D
:100FC0008091D10E90E08E159F0514F4E092D10E21
:100FD000C12CD12CCE14DF0444F000E020E040E02E
:100FE000B60182EC9BE00E943D362FEFC21AD20A76
:100FF0008CE3C816D10471F76091D10E662341F0DD
:1010000070E000E020E04FEF82EC9BE00E943D3674
:101010000E948F3F0091BC051091BD052091BE0537
:101020003091BF05DC01CB01801B910BA20BB30BF0
:101030000A97A105B105A8F00E948F3F6093BC05F7
:101040007093BD058093BE059093BF0582EC9BE035
:101050000E948E368091D10E882319F081508093A2
:10106000D10E8091CF0EE82FF0E0EE0FFF1FE15B75
:10107000F14FD183C0838F5F803418F48093CF0EFB
:1010800002C01092CF0EC091AE07D091AF07E1E53C
:10109000FEE06FEC7EE0CE019E014191519142173E
:1010A000530728F08417950718F4CA0101C09A0164
:1010B0006E177F0791F7AC01421B530B403451056B
:1010C00018F4C901805C9F4FE0914D0EF0914E0ED7
:1010D0004FE34E9FB0014F9F700D1124260F371F15
:1010E000A6E036952795AA95E1F730934E0E20930A
:1010F0004D0E6091160270911702469F9001479F16
:10110000300D1124820F931FB6E096958795BA95FE
:10111000E1F790931702809316028AE30E94783DCC
:10112000925097FF03C09195819591098B3091055D
:101130002CF07C012AE0E21AF10802C0E12CF12C2B
:10114000809114029091150227E0289FB001299FF9
:10115000700D11246E0D7F1DE3E075956795EA957E
:10116000E1F770931502609314024091CA0D5091FB
:10117000CB0D641B750BF6E0660F771FFA95E1F750
:10118000072E000C880B990B20911202309113024C
:10119000241B350B032E000C440B550B0E94C54835
:1011A0002134310514F020E430E0690137FF02C03A
:1011B000C12CD12C8091D00E90E08C159D0514F49B
:1011C000C092D00EA12CB12CAC14BD0444F000E0B0
:1011D00020E040E0B5018DEA9BE00E943D368FEFB4
:1011E000A81AB80A2CE3A216B10471F76091D00EC8
:1011F0008FEF860F8B3340F470E00FEF20E040E07C
:101200008DEA9BE00E943D360E948F3F0091BC0515
:101210001091BD052091BE053091BF05DC01CB01C9
:10122000801B910BA20BB30B0A97A105B105A8F087
:101230000E948F3F6093BC057093BD058093BE05EF
:101240009093BF058DEA9BE00E948E368091D00E70
:10125000882319F081508093D00E80914C0EE82F96
:10126000F0E0EE0FFF1FE453F24FF182E0828F5F58
:10127000803418F480934C0E02C010924C0EEEECA9
:10128000FDE04CE45EE0CE01219131912817390751
:1012900028F0C217D30718F4E90101C0C9014E179D
:1012A0005F0791F79E01281B390B2034310518F494
:1012B000EC01C05CDF4F6091CA0D7091CB0D2FE344
:1012C000269FA001279F500D1124840F951F36E003
:1012D000969587953A95E1F79093CB0D8093CA0D3B
:1012E0004091120250911302249FC001259F900D3E
:1012F0001124C80FD91F46E0D695C7954A95E1F746
:10130000D0931302C0931202DF91CF911F910F91DE
:10131000FF90EF90DF90CF90BF90AF9008954F92E5
:101320005F926F927F92AF92BF92CF92DF92EF92D5
:10133000FF920F93CF93DF938BE30E94783D9250FF
:1013400097FF03C09195819591098B3091051CF011
:10135000EC012A9702C0C0E0D0E080911802909181
:10136000190227E0289FB001299F700D11246C0FEE
:101370007D1F83E0759567958A95E1F77093190253
:101380006093180240914D0E50914E0E641B750BE8
:1013900096E0660F771F9A95E1F7072E000C880BF1
:1013A000990B2091160230911702241B350B032E46
:1013B000000C440B550B0E94C5482134310514F034
:1013C00020E430E0790137FF02C0E12CF12C80915C
:1013D000D10E90E08E159F0514F4E092D10E412CB1
:1013E000512C3201C12CD12CCE14DF044CF000E082
:1013F00020E040E0B60182EC9BE00E943D3617C041
:101400002091C40B3091C50B2150310940E050E0D0
:10141000C301B2010E94C5488EE1820F0E94FE23E3
:101420009B01AC01B60182EC9BE00E94C8352FEF16
:10143000C21AD20A88E7480E511C611C711C2CE3A9
:10144000C216D10489F66091D10E8FEF860F8B33CF
:1014500040F470E00FEF2FEF4FEF82EC9BE00E9423
:101460003D360E948F3FC090BC05D090BD05E090F6
:10147000BE05F090BF05DC01CB018C199D09AE09BA
:10148000BF090A97A105B105A8F00E948F3F60939C
:10149000BC057093BD058093BE059093BF0582EC9B
:1014A0009BE00E948E368091D10E882319F08150E6
:1014B0008093D10E8091CF0EE82FF0E0EE0FFF1F4A
:1014C000E15BF14FD183C0838F5F803418F4809348
:1014D000CF0E02C01092CF0EC091AE07D091AF07D1
:1014E000E1E5FEE06FEC7EE0CE019E01419151917D
:1014F0004217530728F08417950718F4CA0101C052
:101500009A016E177F0791F7AC01421B530B4034D1
:10151000510518F4C901805C9F4FE0914D0EF09188
:101520004E0E4FE34E9FB0014F9F700D1124260FBA
:10153000371FA6E036952795AA95E1F730934E0E12
:1015400020934D0E6091160270911702469F9001F4
:10155000479F300D1124820F931FB6E09695879513
:10156000BA95E1F790931702809316028AE30E94DE
:10157000783D925097FF03C09195819591098B30EA
:1015800091052CF07C012AE0E21AF10802C0E12C5E
:10159000F12C809114029091150227E0289FB00150
:1015A000299F700D11246E0D7F1DE3E075956795E1
:1015B000EA95E1F770931502609314024091CA0D09
:1015C0005091CB0D641B750BF6E0660F771FFA95F3
:1015D000E1F7072E000C880B990B20911202309135
:1015E0001302241B350B032E000C440B550B0E94D9
:1015F000C5482134310514F020E430E0690137FF9B
:1016000002C0C12CD12C8091D00E90E08C159D058C
:1016100014F4C092D00E412C512C3201A12CB12CCB
:10162000AC14BD044CF000E020E040E0B5018DEAD0
:101630009BE00E943D3617C02091AF0B3091B00B5C
:101640002150310940E050E0C301B2010E94C54879
:101650008EE1820F0E94FE239B01AC01B5018DEA51
:101660009BE00E94C8358FEFA81AB80A28E7420EFF
:10167000511C611C711C8CE3A816B10489F66091A1
:10168000D00E8FEF860F8B3340F470E00FEF2FEF0B
:101690004FEF8DEA9BE00E943D360E948F3F4090C5
:1016A000BC055090BD056090BE057090BF05DC0183
:1016B000CB0184199509A609B7090A97A105B105B7
:1016C000A8F00E948F3F6093BC057093BD05809386
:1016D000BE059093BF058DEA9BE00E948E368091F7
:1016E000D00E882319F081508093D00E80914C0E3B
:1016F000E82FF0E0EE0FFF1FE453F24FF182E0829B
:101700008F5F803418F480934C0E02C010924C0E00
:10171000EEECFDE04CE45EE0CE0121913191281722
:10172000390728F0C217D30718F4E90101C0C9012D
:101730004E175F0791F79E01281B390B20343105A6
:1017400018F4EC01C05CDF4F6091CA0D7091CB0DB5
:101750002FE3269FA001279F500D1124840F951F72
:1017600036E0969587953A95E1F79093CB0D809367
:10177000CA0D4091120250911302249FC001259F6F
:10178000900D1124C80FD91F46E0D695C7954A95EC
:10179000E1F7D0931302C0931202DF91CF910F9122
:1017A000FF90EF90DF90CF90BF90AF907F906F90C1
:1017B0005F904F90089580E991E00895E1E0F1E0B5
:1017C00080818860808308956B9A08957F928F92BC
:1017D0009F92AF92BF92CF92DF92EF92FF920F93C0
:1017E0001F93CF93DF934C01EB010E94323FF40132
:1017F00027853089621B730B6A307105B0F3F8944A
:10180000E881F9815EB15860752E4EB1477F4EB9BF
:10181000EA848F812E2D281B822F2F83DF84AA81BB
:10182000BB816D857C85FE846F5F7F5FF3949E81B5
:101830003885C9840B851181C0E0D32F3C2F5C2FE4
:101840002C2F2181112788942111280F08F42FEFC4
:101850008195889460FD120F1795889461FD120F91
:101860001795889462FD120F1795889463FD120FE7
:101870001795889464FD120F1795889465FD120FD3
:101880001795889466FD120F1795889467FD120FBF
:1018900017958894322F6111312F8E0D132F002C44
:1018A0007EB800C017FF4EB920813327889400C04E
:1018B00000C0002C4EB92111290F00C0002C7EB8A9
:1018C00000C016FF4EB908F42FEF9195889400C020
:1018D00000C0002C4EB970FD320F00C0002C7EB845
:1018E00000C015FF4EB93795889471FD320F00C0C6
:1018F00000C0002C4EB93795889400C0002C7EB8EB
:1019000000C014FF4EB972FD320F3795889400C0A5
:1019100000C0002C4EB973FD320F00C0002C7EB801
:1019200000C013FF4EB93795889474FD320F00C084
:1019300000C0002C4EB93795889400C0002C7EB8AA
:1019400000C012FF4EB975FD320F3795889400C064
:1019500000C0002C4EB976FD320F00C0002C7EB8BE
:1019600000C011FF4EB93795889477FD320F00C043
:1019700000C0002C4EB93795889400C0002C7EB86A
:1019800000C010FF4EB9122F7111132F9C0D00C013
:1019900000C0002C4EB900C000C0002C7EB800C0B2
:1019A00017FF4EB922813327889400C000C0002C55
:1019B0004EB921112D0F00C0002C7EB800C016FFBB
:1019C0004EB908F42FEFED0DF11D00C000C0002C42
:1019D0004EB9F0FC320F00C0002C7EB800C015FFDD
:1019E0004EB937958894F1FC320F00C000C0002C2E
:1019F0004EB93795889400C0002C7EB800C014FF03
:101A00004EB9F2FC320F3795889400C000C0002C0C
:101A10004EB9F3FC320F00C0002C7EB800C013FF9B
:101A20004EB937958894F4FC320F00C000C0002CEA
:101A30004EB93795889400C0002C7EB800C012FFC4
:101A40004EB9F5FC320F3795889400C000C0002CC9
:101A50004EB9F6FC320F00C0002C7EB800C011FF5A
:101A60004EB937958894F7FC320F00C000C0002CA7
:101A70004EB93795889400C0002C7EB800C010FF86
:101A80004EB9122FF110132FD19500C000C0002CB9
:101A90004EB9D00F00C000C07EB800C017FF4EB9CD
:101AA00021813327889400C000C0002C4EB9211139
:101AB000280F00C0002C7EB800C016FF4EB908F4F5
:101AC0002FEF8195889400C000C0002C4EB960FDB6
:101AD000320F00C0002C7EB800C015FF4EB93795FC
:101AE000889461FD320F00C000C0002C4EB93795BC
:101AF000889400C0002C7EB800C014FF4EB962FD6F
:101B0000320F3795889400C000C0002C4EB963FD99
:101B1000320F00C0002C7EB800C013FF4EB93795BD
:101B2000889464FD320F00C000C0002C4EB9379578
:101B3000889400C0002C7EB800C012FF4EB965FD2D
:101B4000320F3795889400C000C0002C4EB966FD56
:101B5000320F00C0002C7EB800C011FF4EB937957F
:101B6000889467FD320F00C000C0002C4EB9379535
:101B7000889400C0002C7EB800C010FF4EB9122F10
:101B80006111132F8E0D00C000C0002C4EB91197AB
:101B900009F086CE84B58F7C84BD78940E94323F54
:101BA000F401708B6787DF91CF911F910F91FF90A8
:101BB000EF90DF90CF90BF90AF909F908F907F90ED
:101BC00008957F928F929F92AF92BF92CF92DF92B1
:101BD000EF92FF920F931F93CF93DF934C01EB0192
:101BE0000E94323FF40127853089621B730B6A30F3
:101BF0007105B0F3F894E881F981509102015860C1
:101C000040910201477F40930201EA848F812E2D8B
:101C1000281B822F2F83DF84AA81BB816D857C8561
:101C2000FE8477247394760E7F5FF3949E813885CB
:101C3000C9840B851181C0E0D32F3C2F6C2F2C2F32
:101C40002181112788942111280F08F42FEF819505
:101C5000889470FC120F1795889471FC120F1795D9
:101C6000889472FC120F1795889473FC120F1795C5
:101C7000889474FC120F1795889475FC120F1795B1
:101C8000889476FC120F1795889477FC120F17959D
:101C90008894322F7110312F8E0D132F002C5093FA
:101CA0000201002C17FF4093020120813327889402
:101CB00000C000C0409302012111290F00C05093C1
:101CC0000201002C16FF4093020108F42FEF9195BA
:101CD000889400C000C04093020170FD320F00C024
:101CE00050930201002C15FF409302013795889410
:101CF00071FD320F00C000C04093020137958894F7
:101D000000C050930201002C14FF4093020172FDA9
:101D1000320F3795889400C000C04093020173FDD4
:101D2000320F00C050930201002C13FF40930201B8
:101D30003795889474FD320F00C000C040930201B3
:101D40003795889400C050930201002C12FF4093F5
:101D5000020175FD320F3795889400C000C0409392
:101D6000020176FD320F00C050930201002C11FFDA
:101D7000409302013795889477FD320F00C000C070
:101D8000409302013795889400C050930201002CC3
:101D900010FF40930201122F7111132F9C0D00C0F0
:101DA00000C04093020100C000C050930201002C0B
:101DB00017FF4093020122813327889400C000C09E
:101DC0004093020121112D0F00C050930201002CFD
:101DD00016FF4093020108F42FEFED0DF11D00C036
:101DE00000C040930201F0FC320F00C0509302018A
:101DF000002C15FF4093020137958894F1FC320FB7
:101E000000C000C0409302013795889400C05093F1
:101E10000201002C14FF40930201F2FC320F3795AF
:101E2000889400C000C040930201F3FC320F00C050
:101E300050930201002C13FF4093020137958894C0
:101E4000F4FC320F00C000C0409302013795889423
:101E500000C050930201002C12FF40930201F5FCD8
:101E6000320F3795889400C000C040930201F6FC01
:101E7000320F00C050930201002C11FF4093020169
:101E800037958894F7FC320F00C000C040930201E0
:101E90003795889400C050930201002C10FF4093A6
:101EA0000201122FF110132FD19500C000C04093F2
:101EB0000201D00F00C0002C50930201002C17FF2C
:101EC0004093020121813327889400C000C04093D1
:101ED00002012111280F00C050930201002C16FFAF
:101EE0004093020108F42FEF8195889400C000C050
:101EF0004093020170FC320F00C050930201002C8D
:101F000015FF409302013795889471FC320F00C091
:101F100000C0409302013795889400C0509302019D
:101F2000002C14FF4093020172FC320F3795889405
:101F300000C000C04093020173FC320F00C05093F8
:101F40000201002C13FF409302013795889474FC22
:101F5000320F00C000C0409302013795889400C042
:101F600050930201002C12FF4093020175FC320FC6
:101F70003795889400C000C04093020176FC320F70
:101F800000C050930201002C11FF409302013795CD
:101F9000889477FC320F00C000C04093020137954F
:101FA000889400C050930201002C10FF409302015E
:101FB000122F7110132F8E0D00C000C0409302012C
:101FC000119709F06CCE84B58F7C84BD78940E9403
:101FD000323FF401708B6787DF91CF911F910F9192
:101FE000FF90EF90DF90CF90BF90AF909F908F9039
:101FF0007F9008950F931F93CF93DF93CDB7DEB7F4
:1020000062970FB6F894DEBF0FBECDBF8C01F90109
:10201000DC011C968C917A8369835C834B835E839D
:102020004D8390819D8791819E8792819F8781308A
:1020300029F4CE0101960E94B93B06C01C861B867E
:102040001A86198618861F8283E0888B1A8A198A55
:10205000D801ED91FC910484F585E02DBE016F5F00
:102060007F4FC801199562960FB6F894DEBF0FBE78
:10207000CDBFDF91CF911F910F9108950F931F93C3
:10208000CF93DF93CDB7DEB762970FB6F894DEBF7C
:102090000FBECDBF8C01F901DC011C968C917A83B7
:1020A00069835C834B835E834D8390819D8791819F
:1020B0009E8792819F87813029F4CE0101960E94EC
:1020C000B93B06C01C861B861A86198618861F8295
:1020D000188A1A8A198AD801ED91FC910484F58531
:1020E000E02DBE016F5F7F4FC801199562960FB654
:1020F000F894DEBF0FBECDBFDF91CF911F910F913E
:1021000008954F925F926F927F928F929F92AF92BB
:10211000BF92CF92DF92EF92FF92CF93DF930E9414
:102120008F3F609325097093260980932709909328
:1021300028098BE30E94783DEC01D250D7FF03C001
:10214000D195C195D109D0933A08C093390889E354
:102150000E94783D2CE330E0DC010E94024C2FEF1E
:1021600033E040E050E00E94C54869017A01E09107
:102170001F09F0912009EE0FFF1FE156F74F8081F4
:102180009181409121095091220960912309709118
:102190002409481B590B61097109CE01DD0FAA0BF7
:1021A000BB0B480F591F6A1F7B1F40932109509397
:1021B0002209609323097093240996E07695679528
:1021C000579547959A95D1F750933808409337081B
:1021D000662777272AE083EE99E00E94C13469EEF2
:1021E00072E083EE99E00E94AC3480911F099091D7
:1021F0002009C0913908D0913A08FC01EE0FFF1F69
:10220000E156F74FD183C083019660E470E00E94ED
:10221000E74B9093200980931F0980909B08909032
:102220009C08A0909D08B0909E0840902509509071
:1022300026096090270970902809D501C4018853A8
:102240009F4FAF4FBF4F84159505A605B70520F4E6
:1022500060E08DE00E940E3D809137089091380833
:10226000C80ED91ECC16DD0608F58CE3880E911C2D
:10227000A11CB11C84149504A604B704B8F48FEF14
:102280009FEF90930602809305028091350890910C
:1022900036080196909336088093350840929B0843
:1022A00050929C0860929D0870929E08DF91CF9199
:1022B000FF90EF90DF90CF90BF90AF909F908F9066
:1022C0007F906F905F904F9008950F931F93CF93DF
:1022D000DF9300D000D0CDB7DEB7809173088111B5
:1022E00013C08BE698E00E94AE3B88EE93E0A0E03E
:1022F000B0E080936F0890937008A0937108B0933A
:10230000720881E0809373088BE698E00E941A2A95
:10231000882361F0809135089091360890933408B5
:10232000809333081092360810923508EADE8091C7
:102330006308811113C08BE598E00E94AE3B84E1F5
:1023400090E0A0E0B0E080935F0890936008A093D5
:102350006108B093620881E0809363088BE598E0A0
:102360000E941A2A882309F4A4C06FEB86E89FE034
:102370000E94DA1B6FEB82ED9EE00E94DA1B009157
:102380000502109106020115110551F100311105E8
:1023900009F441C00F3F8FEF180709F041C00E94B8
:1023A00058472CE330E040E050E00E94C54870936D
:1023B00031086093300820913308309134084AE0A6
:1023C000429FC001439F900D11246FEF70E00E9467
:1023D000E74B80932F0810920602109205021BC053
:1023E00080912F0889838FEF8A838B8360913008D7
:1023F00070913108CB01880F991F680F791F6A57B8
:10240000704FCE0101960E94683781E090E0909372
:10241000060280930502E6E8FFE0A2EDBEE031C0CF
:1024200080912F088C838FEF8D838FEF90E0B80120
:102430000E94E74B660F6E83BE016F5F7F4FCE0138
:1024400004960E9468378091300890913108800F7F
:10245000911FCC966CE370E00E94E74B9C01220F29
:10246000331F820F931FBE016F5F7F4F8A57904FBC
:102470000E94E0290F5F1F4F109306020093050290
:10248000CACF80818C93818111968C931197828120
:1024900012968C9312973396139680E1EA33F807DD
:1024A00081F7109137080E944A2A811710F40E9480
:1024B0003D3B0E94AF1A26960FB6F894DEBF0FBEC2
:1024C000CDBFDF91CF911F910F9108959F92AF9251
:1024D000BF92CF92DF92EF92FF920F931F93CF9311
:1024E000DF9300D000D0CDB7DEB7809153088111C3
:1024F00013C08BE498E00E94AE3B88EE93E0A0E02E
:10250000B0E080934F0890935008A0935108B09387
:10251000520881E0809353088BE498E00E941A2AC5
:10252000882361F0809135089091360890933408A3
:10253000809333081092360810923508E2DD8091BE
:102540004308811113C08BE398E00E94AE3B84E105
:1025500090E0A0E0B0E080933F0890934008A09303
:102560004108B093420881E0809343088BE398E0F0
:102570000E941A2A811113C0F2D726960FB6F8943A
:10258000DEBF0FBECDBFDF91CF911F910F91FF90A6
:10259000EF90DF90CF90BF90AF909F9008956FEB3A
:1025A00086E89FE00E94DA1B009105021091060266
:1025B0000115110551F10031110509F441C00F3F1A
:1025C0008FEF180709F043C00E9458472CE330E012
:1025D00040E050E00E94C548709331086093300895
:1025E00020913308309134084AE0429FC001439F54
:1025F000900D11246FEF70E00E94E74B80932F083D
:1026000010920602109205021BC080912F08898348
:102610008FEF8A838B836091300870913108CB01F2
:10262000880F991F680F791F6A57704FCE01019666
:102630000E94683781E090E0909306028093050243
:10264000E6E8FFE0A2EDBEE08AE390E153C08FEF41
:1026500090E0B8010E94E74BD62EDD0C90902F0839
:102660009C82CC24CA94CD82DE82BE016F5F7F4FF4
:10267000CE0104960E946837E0903008F09031084F
:10268000C8018E0D9F1DCC962CE3A22EB12CB50156
:102690000E94E74B9C01220F331F820F931FBE0144
:1026A0006F5F7F4F8A57904F0E94E0299C82CD82B6
:1026B000DE82BE016F5F7F4FCE0104960E946837B5
:1026C000C701801B910BCC96B5010E94E74B9C0182
:1026D000220F331F820F931FBE016F5F7F4F8A57F8
:1026E000904F0E94E0290F5F1F4F10930602009346
:1026F0000502A6CF20812C93218111962C9311974E
:10270000228112962C931297339613968E179F0759
:1027100089F732CF8F929F92AF92BF92CF92DF9282
:10272000EF92FF920F93CF93DF938BE30E94783D5C
:10273000925097FF03C09195819591098B30910537
:102740001CF0EC012A9702C0C0E0D0E08091180292
:102750009091190227E0289FB001299F700D112444
:102760006C0F7D1FB3E075956795BA95E1F770938F
:1027700019026093180240914D0E50914E0E641B49
:10278000750B06E0660F771F0A95E1F7072E000C20
:10279000880B990B2091160230911702241B350BE0
:1027A000032E000C440B550B0E94C5482134310503
:1027B00014F020E430E0690137FF02C0C12CD12CB5
:1027C0008091D10E90E08C159D0514F4C092D10E2D
:1027D000EEE1AE2EB12CFDE1EF2EF12CADE18A2E13
:1027E000912CC4018E199F0900E020E08C159D05F5
:1027F0004CF040E0B70182EC9BE00E943D3620E0C7
:1028000040E008C04FEFB70182EC9BE00E943D36EC
:1028100020E04FEFB50182EC9BE00E943D3621E0C5
:10282000E21AF1088FEFA81AB80A2FEFE216F206A3
:10283000C1F68091D10E9FEF980F9D31B0F46DE1FC
:1028400070E0681B71090FEF20E040E082EC9BE034
:102850000E943D366091D10E70E0625E7F4F20E0B5
:1028600040E082EC9BE00E943D3682EC9BE00E94BF
:102870008E3680912E088F5F80932E088F3048F01F
:102880008091D10E882319F081508093D10E10923F
:102890002E088091CF0EE82FF0E0EE0FFF1FE15BD6
:1028A000F14FD183C0838F5F803418F48093CF0EB3
:1028B00002C01092CF0EE1E5FEE080E090E02191B1
:1028C00031918217930708F4C9012EE0EF3CF2071B
:1028D000B1F78034910510F480E490E060914D0EE2
:1028E00070914E0E4FE3469F9001479F300D11248B
:1028F00056E0369527955A95E1F730934E0E209382
:102900004D0E6091160270911702469F9001479FED
:10291000300D1124820F931F66E0969587956A9576
:10292000E1F790931702809316028AE30E94783DA4
:10293000925097FF03C09195819591098B30910535
:102940001CF0EC012A9702C0C0E0D0E08091140294
:102950009091150227E0289FB001299F700D112446
:102960006C0F7D1FB3E075956795BA95E1F770938D
:102970001502609314024091CA0D5091CB0D641B57
:10298000750B06E0660F771F0A95E1F7072E000C1E
:10299000880B990B2091120230911302241B350BE6
:1029A000032E000C440B550B0E94C5482134310501
:1029B00014F020E430E0690137FF02C0C12CD12CB3
:1029C0008091D00E90E08C159D0514F4C092D00E2D
:1029D000EEE1AE2EB12CFDE1EF2EF12CADE18A2E11
:1029E000912CC4018E199F0900E020E08C159D05F3
:1029F0004CF040E0B7018DEA9BE00E943D3620E0BC
:102A000040E008C04FEFB7018DEA9BE00E943D36E1
:102A100020E04FEFB5018DEA9BE00E943D3681E05A
:102A2000E81AF1082FEFA21AB20A8FEFE816F8069B
:102A3000C1F68091D00E9FEF980F9D31B0F46DE1FB
:102A400070E0681B71090FEF20E040E08DEA9BE029
:102A50000E943D366091D00E70E0625E7F4F20E0B4
:102A600040E08DEA9BE00E943D368DEA9BE00E94AB
:102A70008E368091AD078F5F8093AD078F3048F021
:102A80008091D00E882319F081508093D00E10923F
:102A9000AD0780914C0EE82FF0E0EE0FFF1FE453DE
:102AA000F24FD183C0838F5F803418F480934C0E33
:102AB00002C010924C0EEEECFDE04CE45EE080E0D3
:102AC00090E0219131918217930708F4C9014E17C4
:102AD0005F07B9F78034910510F480E490E06091CD
:102AE000CA0D7091CB0D4FE3469F9001479F300D6B
:102AF000112456E0369527955A95E1F73093CB0D82
:102B00002093CA0D6091120270911302469F9001AA
:102B1000479F300D1124820F931F66E0969587958D
:102B20006A95E1F79093130280931202DF91CF919F
:102B30000F91FF90EF90DF90CF90BF90AF909F905C
:102B40008F9008954F925F926F927F928F929F9293
:102B5000AF92BF92CF92DF92EF92FF92CF93DF932B
:102B600000D000D0CDB7DEB70E948F3F6B017C0153
:102B7000609325097093260980932709909328096B
:102B80008BE30E94783D92509E838D8397FF05C012
:102B90009195819591099E838D832D813E813093FE
:102BA0003A082093390889E30E94783D2CE330E00D
:102BB000DC010E94024C2FEF33E040E050E00E9425
:102BC000C54829833A834B835C8380911F09909188
:102BD0002009FC01EE0FFF1FE156F74F20813181E4
:102BE0004091210950912209609123097091240993
:102BF000421B530B610971092D813E814901032E4E
:102C0000000CAA08BB08480D591D6A1D7B1D409386
:102C100021095093220960932309709324092A0102
:102C20003B0146E076946794579447944A95D1F7D0
:102C3000509238084092370831832083019660E42F
:102C400070E00E94E74B9093200980931F098090C9
:102C50009B0890909C08A0909D08B0909E08D5017C
:102C6000C40188539F4FAF4FBF4F8C159D05AE05D4
:102C7000BF0520F460E08DE00E940E3D89819A81BD
:102C8000480E591E2D813E814216530628F53CE31D
:102C9000830E911CA11CB11C8C149D04AE04BF04B6
:102CA000D8F48FEF9FEF90930602809305028091F6
:102CB0003508909136080196909336088093350830
:102CC00061E08DE00E940E3DC0929B08D0929C086E
:102CD000E0929D08F0929E0826960FB6F894DEBF0B
:102CE0000FBECDBFDF91CF91FF90EF90DF90CF90DF
:102CF000BF90AF909F908F907F906F905F904F901C
:102D000008959F92AF92BF92CF92DF92EF92FF927F
:102D10000F931F93CF93DF9300D000D0CDB7DEB7D2
:102D200080919308811113C08BE898E00E94AE3B1C
:102D300088EE93E0A0E0B0E080938F089093900835
:102D4000A0939108B093920881E0809393088BE858
:102D500098E00E941A2A882361F0809135089091AA
:102D600036089093340880933308109236081092F6
:102D70003508E8DE80918308811113C08BE798E065
:102D80000E94AE3B84E190E0A0E0B0E080937F0839
:102D900090938008A0938108B093820881E080938B
:102DA00083088BE798E00E941A2A882309F4DDC083
:102DB00006E81FE0EAE3CE2EE0E1DE2EBB24BA9463
:102DC000F0903708FF0CE0903208E982BA82FB826B
:102DD000B801CE0101960E9468370D5F1F4FC016E3
:102DE000D10671F702ED1EE076E8A72E7FE0B72E40
:102DF000CC24CA94E982DD24DA94CA82FB82B80129
:102E0000CE0101960E9468370D5F1F4FA016B106D4
:102E100089F700910502109106020115110579F15B
:102E20000031110509F4A1C00F3F8FEF180709F019
:102E30004CC00E9458472CE330E040E050E00E9434
:102E4000C548709331086093300820913308309161
:102E500034084AE0429FC001439F900D11246FEF58
:102E600070E00E94E74B80932F08109206021092A8
:102E7000050280913208885F8093320876C0F09016
:102E80002F08F982DA82DB82809130089091310834
:102E90008C01000F111F080F191FB8016A57704FDE
:102EA000CE0101960E946837F982DA82DB82B8018E
:102EB0006E52714FCE0101960E94683781E090E01A
:102EC000909306028093050250C08FEF90E0B80106
:102ED0000E94E74BC62ECC0C90902F089C82DD827E
:102EE000CE82BE016F5F7F4FCE0104960E9468378D
:102EF000E0903008F0903108C8018E0D9F1DCC96EF
:102F00002CE3A22EB12CB5010E94E74B9C01220FAD
:102F1000331F820F931FBE016F5F7F4F8A57904F01
:102F20000E94E0299C82DD82CE82BE016F5F7F4FCE
:102F3000CE0104960E946837C701801B910BCC9686
:102F4000B5010E94E74B9C01220F331F820F931F94
:102F5000BE016F5F7F4F8E52914F0E94E0290F5F3D
:102F60001F4F1093060200930502F9D226960FB662
:102F7000F894DEBF0FBECDBFDF91CF911F910F91AF
:102F8000FF90EF90DF90CF90BF90AF909F9008950B
:102F9000CF92DF92EF92FF921F93CF93DF9300D0F7
:102FA00000D0CDB7DEB76BEE72E0CE0101960E9485
:102FB0007134E0914309F0E0EE0FFF1FE05AFD4F3E
:102FC0000190F081E02D199580913B0981110DC090
:102FD00087E399E00E949F3B8FE090E090933A094D
:102FE0008093390981E080933B0987E399E00E944F
:102FF000F829882351F08091430990E001966EE012
:1030000070E00E94D34B809343091091430962E71B
:1030100074E083EE99E00E94093586E0189FF00184
:103020001124E552F54FE080F180E114F10449F0FC
:10303000C480D580B601CE0101960E94FF018111A6
:1030400005C0CE0101960E94260207C0DE82CD8215
:10305000B70189819A810E94164E4D815E816981F6
:103060007A8183EE99E00E94203369EE72E083EE6C
:1030700099E00E94AC3461E08EE08BD365E874E0A7
:1030800083EE99E00E9409351A3030F468E175E06A
:1030900085E39BE00E940935612F85E39BE0A5D382
:1030A000812FAAD380914309A7D389819A810E9455
:1030B000A04C26960FB6F894DEBF0FBECDBFDF91B1
:1030C000CF911F91FF90EF90DF90CF900895CF9315
:1030D000DF9300D000D0CDB7DEB76BEE72E0CE014B
:1030E00001960E947134E0913609F0E0EE0FFF1F67
:1030F000EE5AFD4F0190F081E02D199580912E0937
:1031000081110DC08AE299E00E949F3B8EE190E020
:1031100090932D0980932C0981E080932E098AE2F7
:1031200099E00E94F829882351F08091360990E0B7
:10313000019667E070E00E94D34B8093360960E906
:1031400074E083EE99E00E940935E09136098E2FF4
:1031500090E02D813E818217930720F4E981FA8166
:10316000309729F410922909E9E2F9E002C0E80F4A
:10317000F91F608183EE99E00E94BB3369EE72E033
:1031800083EE99E00E94AC3489819A810E94A04C20
:1031900026960FB6F894DEBF0FBECDBFDF91CF915C
:1031A000089540E0682F85E39BE00C945639CF9357
:1031B000DF93EC018F3F910509F010F4DC2FCC2751
:1031C0000E948F3F9B01AC01A8E1B1E00E94E14861
:1031D0009B01AC01DE010E94E148AC016627772724
:1031E000CA019F739695879596958795969587952D
:1031F0009A0122273074232B31F02FEF37E0F901A9
:10320000E81BF90BCF01E92FEE0FEE0FF0E0E458C9
:10321000FD4F20813181992795958795A281A89F9F
:10322000F001A99FF00D11242E0F3F1F57FF03C07F
:1032300031952195310930584BE350E0249FC0016E
:10324000359FD001E0E0349F900DA11DBE1F259F4A
:10325000900DA11DBE1F1124BC01CD01620F731F73
:103260008E1F9E1FDF91CF910895CF92DF92EF9234
:10327000FF92CF93DF93EC016A017B01E889F98922
:1032800082E080834115514E61057105B1F060E027
:1032900079E08DE390E0A70196010E94F148DA0100
:1032A000C9010197A109B109B695A7959795879589
:1032B0009C01211580E13807A8F0E889F98910827E
:1032C00060E874E88EE190E0A70196010E94F14861
:1032D000DA01C9010197A109B109B695A79597959A
:1032E00087959C01EC85FD853083EE85FF852083E5
:1032F000188EEC89FD8986E08083EA89FB898081CC
:1033000080618083EA89FB89808188608083EA8983
:10331000FB89808180688083EA89FB8980818F7D39
:103320008083DF91CF91FF90EF90DF90CF90089551
:10333000CF93DF93823028F09091440B9860909364
:10334000440B8093480B1092490B80E480934A0B06
:1033500080E180934B0B80E580934C0B61E0809182
:10336000390B0E943C3D80913A0B8F3F19F061E090
:103370000E943C3D61E080913B0B0E943C3DC5E3D7
:10338000DBE09E0125533B408091440B84FD03C04C
:1033900084E090E002C088E090E021962817390789
:1033A0002CF461E08E810E943C3DEBCF8BE39DE0ED
:1033B0000197F1F760E08091390B0E940E3D60E0CB
:1033C00080913B0B0E940E3D80913A0B8F3F19F08C
:1033D00060E00E940E3D8091440B84FD20C063E0BC
:1033E00085E39BE00E942B39CBE4D6E4CE01019724
:1033F000F1F763E085E39BE00E942B392197F1F719
:1034000063E085E39BE00E942B3983E592E001971E
:10341000F1F762E085E39BE00E942B3912C08062E5
:10342000C0DE8BE496E40197F1F78091440B806253
:10343000B8DE83E592E00197F1F78091440B80625A
:10344000B0DE8091440B8062ACDE84E08093450B5B
:103450008CE0A7DE81E0A5DE8BE39FE10197F1F729
:1034600082E08093460B86E0DF91CF919ACE8F92D7
:103470009F92AF92BF92CF92DF92EF92FF920F9303
:103480001F93CF93DF9300D000D0CDB7DEB75C01A0
:10349000FB016A0179014801DA018C9189831A8262
:1034A00012968C918B8380818C8381818D83828124
:1034B0008E838E010F5F1F4F25E030E0AE014C5F21
:1034C0005F4F60E070E0C5010E948938F70180819C
:1034D000898381818A8382818B83D6018C918C83BD
:1034E00011968C9111978D8312968C918E832AE080
:1034F00030E0AE014C5F5F4F65E070E0C5010E94B7
:103500008938F4018081898381818A8382818B83D8
:10351000D7018C918C8311968C9111978D83129683
:103520008C918E832FE030E0AE014C5F5F4F6AE0FC
:1035300070E0C5010E94893826960FB6F894DEBF68
:103540000FBECDBFDF91CF911F910F91FF90EF90F4
:10355000DF90CF90BF90AF909F908F9008953F9253
:103560004F925F926F927F928F929F92AF92BF9293
:10357000CF92DF92EF92FF920F931F93CF93DF933F
:1035800000D0CDB7DEB7F090800A8091830A909189
:10359000840AA091850AB091860A892B8A2B8B2BED
:1035A000E9F00E94323F0091DD0B1091DE0B20917B
:1035B000DF0B3091E00BDC01CB01801B910BA20BE8
:1035C000B30B0091830A1091840A2091850A3091EF
:1035D000860A80179107A207B307B8F20E94323F0C
:1035E0006093DD0B7093DE0B8093DF0B9093E00B09
:1035F000E0918B0AF0918C0A309759F04091870A3C
:103600005091880A6091890A70918A0A8F2D1995C4
:10361000F82E00914409109145094F2C512C612C32
:10362000712C0115110509F45FC0D8011C96EC90AE
:103630001C978091810A9091820A8436910510F43A
:103640001C961C92D801ED91FC91A280B380198246
:103650001A821B82F11014C0F801458556856281DB
:1036600073819E012F5F3F4FC801F5011995D80165
:103670001C96EC921C9714960D911C911597D1CF26
:10368000F8013696CE0101966C01480199E0890E49
:10369000911C2191222309F132803320F1F0822FF5
:1036A00090E0A0E0B0E09C01AD012F5F3F4F4F4F95
:1036B0005F4FC301B2010E94C44B9B01AC01832D3B
:1036C00090E0A0E0B0E0BC01CD016F5F7F4F8F4F75
:1036D0009F4F0E94C44BD6018C93BFEFCB1ADB0ADD
:1036E000E815F905B1F6B8CF8091DB0B9091DC0BB2
:1036F0008C010F5F1F4F1093DC0B0093DB0B49977E
:103700009CF10E948F3F4B015C0188EE93E0089F83
:10371000B001099F700D189F700D1124072E000C29
:10372000880B990BC090D70BD090D80BE090D90B99
:10373000F090DA0BA50194012C193D094E095F099F
:103740000E94F1483093820A2093810A1092DC0B88
:103750001092DB0B0E948F3F6093D70B7093D80BB6
:103760008093D90B9093DA0B0F900F900F90DF910D
:10377000CF911F910F91FF90EF90DF90CF90BF906E
:10378000AF909F908F907F906F905F904F903F9001
:103790000895643008F063E09091480B691710F0C9
:1037A0006FEF690FE62FF0E0EB5CF44F9489890F1F
:1037B0008068F7CCFC018C549F4F2081269F020E1D
:1037C00020E0211D20832181269F020E20E0211D63
:1037D00021832281269F020E20E0211D22831124B5
:1037E0003396E817F90749F70895462F50E060E04F
:1037F00070E02AE00C94C134CF93DF93682F83EEFE
:1038000099E0F3DFEC0169EE72E083EE99E00E944B
:10381000AC348C0F9D1FDF91CF910895EF92FF92F2
:103820000F931F93CF93DF9300D0CDB7DEB77C010A
:1038300069838FEF8B8380EF8A8300E010E0B7010C
:10384000600F711FCE0101960E9468378981895FE0
:1038500089830D5F1F4F043B110589F70F900F906F
:103860000F90DF91CF911F910F91FF90EF900895EE
:1038700097FF02C0CC9608958C3391050CF0CC973D
:1038800008954F925F926F927F928F929F92AF9224
:10389000BF92CF92DF92EF92FF92CF93DF930E947D
:1038A000584729E130E040E050E00E94C5486130CF
:1038B000710581059105A1F50E9458472CE330E080
:1038C00040E050E00E94C5486B017C010E945847CF
:1038D0004B015C010E9458472B013C010E94584754
:1038E000E601CC0FDD1F9E012C0D3D1DE901CA57DD
:1038F000D04FC12CD12C7601D394A70196010E9400
:10390000C5486883C301B201A70196010E94C5485A
:103910006983C501B401A70196010E94C5486A8365
:103920000E94584729E130E040E050E00E94C5483D
:10393000613071058105910599F50E9458472CE386
:1039400030E040E050E00E94C5486B017C010E94DD
:1039500058474B015C010E9458472B013C010E94D3
:1039600058479601220F331F2C0D3D1DE901CE5201
:10397000D14FC12CD12C7601D394A70196010E947E
:10398000C5486883C301B201A70196010E94C548DA
:103990006983C501B401A70196010E94C5486A83E5
:1039A0006DEF86E89FE006DF6DEF82ED9EE002DFBF
:1039B00061E080E0EEDE69E075E085E39BE00E9477
:1039C00009356AE175E085E39BE00E940935C7DDB2
:1039D0006AE070E080E090E0DF91CF91FF90EF909F
:1039E000DF90CF90BF90AF909F908F907F906F901F
:1039F0005F904F900C94573FCF92DF92EF92FF92DF
:103A00000F931F93CF93DF9300D000D0CDB7DEB7D5
:103A10006DEF86E89FE0CEDE87E190E0C8DB6C01C9
:103A20008CE190E0C4DB8C01E090580DF090590DD2
:103A3000E9828FEF8A838B83BE016C5F7F4FCE015B
:103A400001960E946837C601800F911F97FD01966D
:103A5000959587959C01220F331F820F931FBE01FE
:103A60006C5F7F4F8A57904F0E94E0298091500DE4
:103A7000811113C088E49DE00E94AE3B84E190E098
:103A8000A0E0B0E080934C0D90934D0DA0934E0DAF
:103A9000B0934F0D81E08093500D88E49DE00E942B
:103AA0001A2A882339F08FEFE81AF80AF092590D94
:103AB000E092580DE6E8FFE0A2EDBEE080818C9335
:103AC000818111968C931197828112968C93129713
:103AD0003396139680E1EA33F80781F761E080E0DE
:103AE00058DE69E075E085E39BE00E94093567E2F6
:103AF00075E085E39BE00E94093531DD26960FB61F
:103B0000F894DEBF0FBECDBFDF91CF911F910F9113
:103B1000FF90EF90DF90CF900895EF92FF920F9378
:103B20001F93CF93DF9300D000D0CDB7DEB71092B4
:103B3000250D6DEF86E89FE03DDE09E010E0EE2404
:103B4000EA94F090250DF982EA82EB82BE016C5F67
:103B50007F4FCE0101960E946837C80128DB2C8177
:103B6000FC01EE0FFF1FDF01A80FB91FAA57B04FCE
:103B70003C91321708F42C932D81DF01A80FB91F57
:103B8000AA57B04F11963C911197321710F4119625
:103B90002C932E818E0F9F1FFC01EA57F04F8281DC
:103BA000821708F4228380E18F0D8093250D0F5F2B
:103BB0001F4F0D30110529F6E6E8FFE0A2EDBEE04B
:103BC00080818C93818111968C93119782811296BA
:103BD0008C9312973396139680E1EA33F80781F7B6
:103BE00061E080E0D6DD69E075E085E39BE00E945E
:103BF000093564E375E085E39BE00E940935AFDC9D
:103C000026960FB6F894DEBF0FBECDBFDF91CF91E1
:103C10001F910F91FF90EF9008959F92AF92BF92E6
:103C2000CF92DF92EF92FF920F931F93CF93DF9388
:103C300000D000D0CDB7DEB7182F8091400D811194
:103C400013C088E39DE00E94AE3B8AE090E0A0E0D4
:103C5000B0E080933C0D90933D0DA0933E0DB0934A
:103C60003F0D81E08093400D88E39DE00E941A2A79
:103C7000882349F08091580D9091590D01969093A9
:103C8000590D8093580D1123E9F08091580D8983C7
:103C90008FEF8A8380E88B83BE016C5F7F4FCE01FC
:103CA00001960E9468374C813D812E81E6E8FFE055
:103CB0008AE390E140833183228333968E179F07F6
:103CC000C9F70BC0E6E8FFE08AE390E110821182B9
:103CD000128233968E179F07C9F78091300D81119C
:103CE00013C088E29DE00E94AE3B82E390E0A0E03A
:103CF000B0E080932C0D90932D0DA0932E0DB093DA
:103D00002F0D81E08093300D88E29DE00E941A2AF9
:103D1000882309F4C9C08091080290910902019694
:103D200099F40E9458472CE330E040E050E00E94B4
:103D3000C5486093270D8091580D80588093260DBB
:103D400010920902109208020091080210910902D3
:103D500001151105B9F48091260D89838FEF8A83AF
:103D60008B836091270D70E0CB01880F991F680F3E
:103D7000791F6A57704FCE0101960E94683781E023
:103D800090E099C0003111050CF093C0B801012EEC
:103D9000000C880B990B0E94B2479B01AC016DECA3
:103DA0007CEC8CE49FE30E94244A20E030E04FE763
:103DB00053E40E9411480E94F449962EC090260DAB
:103DC000C982DD24DA94DA826B83E090270DF12C2E
:103DD0005801AE0CBF1CC5014BDDBC01660F771F3F
:103DE000860F971FBC016A57704FCE0101960E9443
:103DF0006837C982DA829B82E01AF10AC70138DD8E
:103E0000BC01660F771F860F971FBC016A57704F62
:103E1000CE0101960E946837043011050CF43EC0B3
:103E2000B80162507109072E000C880B990B0E9493
:103E3000B2479B01AC016DEC7CEC8CE49FE30E94EB
:103E4000244A20E030E04FE753E40E9411480E94EA
:103E5000F449962EC982DA826B83C501039708DD87
:103E6000BC01660F771F860F971FBC016A57704F02
:103E7000CE0101960E946837C982DA829B82C7010F
:103E80000396F6DCBC01660F771F860F971FBC01F7
:103E90006A57704FCE0101960E9468370F5F1F4F1F
:103EA0001093090200930802E6E8FFE0A2EDBEE0ED
:103EB00007C08FEF9FEF9093090280930802F4CF21
:103EC00080818C93818111968C93119782811296B7
:103ED0008C9312973396139680E1EA33F80781F7B3
:103EE00061E080E056DC6AE075E085E39BE00E94DB
:103EF000093560E475E085E39BE00E9409352FDB1E
:103F000062E370E080E090E00E94573F26960FB693
:103F1000F894DEBF0FBECDBFDF91CF911F910F91FF
:103F2000FF90EF90DF90CF90BF90AF909F9008955B
:103F30008F929F92AF92BF92CF92DF92EF92FF92B9
:103F40000F931F93CF93DF93CDB7DEB7EF970FB6E5
:103F5000F894DEBF0FBECDBF69EEC62E6CE0D62E44
:103F600086018BE00E945F2AF8012081382F231BF5
:103F700008F420E021938F01FDE005321F0789F747
:103F8000E3E2FDE003E010E08081229190E0820F07
:103F9000911D820F911DB8010E94E74B6283CE16DE
:103FA000DF0691F70E944A2A823390F487E00E944C
:103FB0005F2A082F10E08FE50E945F2A8056F801E3
:103FC000E751F34F2081382F230F08F42FEF208380
:103FD00046E8E42E4FE0F42E50EF952EBB24BA9421
:103FE000F601A1906F012A2D392D239F020E20E0AA
:103FF000211D1124A22EBDAEBEAEBFAE1AAEBBAE09
:10400000BCAE1FAA18AEB9AE1CAA1DAA1EAA8E016C
:10401000035C1F4F9E01265C3F4FAE01495C5F4F22
:10402000BE016C5C7F4FCE01019621DA01E010E009
:104030002FEF4A2DBE016F5F7F4FCE01C1960E94C8
:104040001A3889A9F70180838AA981838BA9828381
:10405000F3E0EF0EF11C2AE3E21620E1F20609F08C
:10406000BFCF2DEAC22E2CE0D22E39EEE32E3CE05B
:10407000F32E86018BE00E945F2AF8012081382F01
:10408000231B08F420E021938F01EE16FF0691F721
:10409000E7EEFCE003E010E08081229190E0820FE7
:1040A000911D820F911DB8010E94E74B6283CE16CD
:1040B000DF0691F70E944A2A823390F487E00E943B
:1040C0005F2A082F10E08FE50E945F2A8056F801D2
:1040D000E355F34F2081382F230F08F42FEF20836F
:1040E00082EDE82E8EE0F82E96E8892E9FE0992E3C
:1040F000BB24BA94F601A1906F012A2D30EF239FC3
:10410000020E20E0211D1124A22EBDAEBEAEBFAE18
:104110001AAEBBAEBCAE1FAA18AEB9AE1CAA1DAA81
:104120001EAA8E01035C1F4F9E01265C3F4FAE010D
:10413000495C5F4FBE016C5C7F4FCE01019697D901
:1041400001E010E02FEF4A2DBE016F5F7F4FCE01DF
:10415000C1960E941A3889A9F70180838AA98183B0
:104160008BA98283F3E0EF0EF11C8E149F0409F0FB
:10417000C1CF61E080E00DDB69E075E085E39BE0A5
:104180000E9409356CE475E085E39BE00E940935E7
:10419000E6D9EF960FB6F894DEBF0FBECDBFDF9124
:1041A000CF911F910F91FF90EF90DF90CF90BF9034
:1041B000AF909F908F9008958F929F92AF92BF92F1
:1041C000CF92DF92EF92FF920F931F93CF93DF93E3
:1041D000CDB7DEB7EF970FB6F894DEBF0FBECDBFF9
:1041E00061E7C62E6CE0D62E86018BE00E945F2A26
:1041F000F8012081382F231B08F420E021938F0140
:10420000FCE00D3A1F0789F7EBEAFCE003E010E061
:104210008081229190E0820F911D820F911DB80143
:104220000E94E74B6283CE16DF0691F70E944A2A6E
:10423000823390F487E00E945F2A082F10E08FE518
:104240000E945F2A8056F801EF58F34F2081382FE3
:10425000230F08F42FEF208346E8E42E4FE0F42EDE
:1042600050EF952EBB24BA94F601A1906F012A2D30
:10427000392D239F020E20E0211D1124A22EBDAE58
:10428000BEAEBFAEBAAEBBAE1CAEBFAA18AE19AEC4
:104290001CAA1DAA1EAA8E01035C1F4F9E01265C4C
:1042A0003F4FAE01495C5F4FBE016C5C7F4FCE015A
:1042B0000196DDD801E010E02FEF4A2DBE016F5FBF
:1042C0007F4FCE01C1960E941A3889A9F7018083D9
:1042D0008AA981838BA98283F3E0EF0EF11C2AE384
:1042E000E21620E1F20609F0BFCF25E3C22E2CE052
:1042F000D22E31E7E32E3CE0F32E86018BE00E94C4
:104300005F2AF8012081382F231B08F420E0219335
:104310008F01EE16FF0691F7EFE6FCE003E010E0F8
:104320008081229190E0820F911D820F911DB80132
:104330000E94E74B6283CE16DF0691F70E944A2A5D
:10434000823390F487E00E945F2A082F10E08FE507
:104350000E945F2A8056F801EB5CF34F2081382FD2
:10436000230F08F42FEF208382EDE82E8EE0F82E45
:1043700096E8892E9FE0992EBB24BA94F601A1906D
:104380006F012A2D30EF239F020E20E0211D112402
:10439000A22EBDAEBEAEBFAEBAAEBBAE1CAEBFAA05
:1043A00018AE19AE1CAA1DAA1EAA8E01035C1F4FCF
:1043B0009E01265C3F4FAE01495C5F4FBE016C5CC5
:1043C0007F4FCE01019653D801E010E02FEF4A2D28
:1043D000BE016F5F7F4FCE01C1960E941A3889A936
:1043E000F70180838AA981838BA98283F3E0EF0E92
:1043F000F11C8E149F0409F0C1CF61E080E0C9D99F
:1044000069E075E085E39BE00E9409356AE575E0A7
:1044100085E39BE00E940935A2D8EF960FB6F89489
:10442000DEBF0FBECDBFDF91CF911F910F91FF90E7
:10443000EF90DF90CF90BF90AF909F908F900895B6
:104440002F923F924F925F926F927F928F929F92A4
:10445000AF92BF92CF92DF92EF92FF920F931F9392
:10446000CF93DF93CDB7DEB72B970FB6F894DEBFAF
:104470000FBECDBF80910702882309F462C075E2A8
:10448000C72E7CE0D72EE5E1EE2EECE0FE2EFDE01F
:104490002F2EFCE03F2E8DEF9BE09D838C83ADEEB5
:1044A000BBE0BF83AE8300E010E0412C512CA0E8BC
:1044B0006A2EAFE37A2EB8E08B2EBEEB9B2EBDE8C2
:1044C000AB2EB0E4BB2E0E948F3FF6016193719337
:1044D000819391936F01D7014D925D926D927D9280
:1044E0007D01F101119211921F01AC81BD818D926C
:1044F0009D92AD92BD92BD83AC83B801012E000C9C
:10450000880B990B0E94B24720E030E040E85DE361
:104510000E9411489B01AC0166E676E686E69FE3C1
:104520000E942249EE81FF8161937193819391935F
:10453000FF83EE830F5F1F4F0430110521F61092A9
:10454000070265E2262E6CE0362E8DEF9BE09D8300
:104550008C8305E11CE0ADE0BCE0BF83AE83EDEEF3
:10456000FBE0F987E887BB87AA870E948F3FD101CC
:10457000CD90DD90ED90FC906C197D098E099F091E
:104580000E94B0474B015C0120E030E04AE754E470
:104590000E948749EC81FD81C080D180E280F38058
:1045A0009B01AC010E94114823EC35EF4CE950EC23
:1045B0000E9411482B013C01A7019601C501B401DD
:1045C0000E94114820E030E04AE754E40E94874905
:1045D0009B01AC01C301B2010E9423495801D801DB
:1045E0006D937D938D939C93139720E030E0A90108
:1045F0000E94AC4787FF33C0F801108211821282FB
:104600001382A885B9852D913D914D915C91C7018B
:10461000B6010E9411486B017C01EC81FD81608331
:104620007183828393830E948F3FD1016D937D9329
:104630008D939C9313972AE037ED43E25CE3C70127
:10464000B6010E94AC4787FF0AC088E09EEBADE848
:10465000B0E4EC81FD8180839183A283B3830C5FFE
:104660001F4F20E030E04CE652E4D5016D917D9182
:104670008D919C910E9411480E94704A0E94EF49BE
:10468000EA85FB8561937193FB87EA87F4E02F0E3F
:10469000311C8C819D8104969D838C83A885B9856E
:1046A0001496B987A887B5E32B16BCE03B0609F042
:1046B0005CCF0DE01CE0F12CEE24EA94F982EA8252
:1046C000EB82F801619171918F01CB01880F991FE5
:1046D000680F791F6A57704FCE0101960E946837A4
:1046E000F8E2FF0E80EAF812E9CFE6E8FFE0A2ED7B
:1046F000BEE08AE390E120812C93218111962C93D6
:104700001197228112962C931297339613968E1737
:104710009F0789F761E080E03CD86AE075E085E3B7
:104720009BE00E94093567E675E085E39BE00E9407
:1047300009350E94AF1A25E13CE0AE81BF818D9121
:104740009D91BF83AE83FC01EE0FFF1FE80FF91FA1
:10475000DF01AA57B04F1C9211961C921197129626
:104760001C92EE52F14F108211821282EE81FF8173
:104770002E173F0711F72B960FB6F894DEBF0FBE2A
:10478000CDBFDF91CF911F910F91FF90EF90DF9000
:10479000CF90BF90AF909F908F907F906F905F90E1
:1047A0004F903F902F90089580E090E00895FC0195
:1047B000858596850895CF93DF9300D000D0CDB73F
:1047C000DEB7AB011C821D821E82DC01ED91FC91E3
:1047D0000190F081E02D19821A821B829E012F5FC9
:1047E0003F4FBE016C5F7F4F199526960FB6F89428
:1047F000DEBF0FBECDBFDF91CF9108950F931F9302
:10480000853578F4682F660F860F282F209590E065
:10481000A0E0B0E0DC0199278827BC01CD01722B14
:1048200023C08A3A70F48555682F660F680F262FCB
:104830002095862F90E0A0E0B0E0BC01CD01822B56
:1048400013C08A5A982F990F890F482F50E060E0C3
:1048500070E0762F652F542F4427982F90958A016A
:104860009B01092BC901B8011F910F9108952F9247
:104870003F924F925F926F927F928F929F92AF92F0
:10488000BF92CF92DF92EF92FF920F931F93CF933D
:10489000DF9300D0CDB7DEB78BE30E94783D925016
:1048A00097FF03C09195819591098B3091052CF06C
:1048B0001C012AE0221A310802C0212C312C8091DF
:1048C00018029091190227E0289FB001299F700DCE
:1048D0001124620D731DE3E075956795EA95E1F784
:1048E000709319026093180240914D0E50914E0E34
:1048F000641B750BF6E0660F771FFA95E1F7072E3C
:10490000000C880B990B2091160230911702241B82
:10491000350B032E000C440B550B0E94C5483B83FE
:104920002A832134310524F080E490E09B838A833C
:104930002A813B8137FF02C01B821A828091D10EEF
:1049400090E02A813B818217930714F42093D10EC3
:10495000812C912C54014EE1C42ED12C5DE1E52E29
:10496000F12C8DE190E08E199F092A813B818217FD
:10497000930784F000E020E040E0B70182EC9BE088
:104980000E943D3620E040E0B60182EC9BE00E94B0
:104990003D361BC0C501B4012DE130E040E050E0E0
:1049A0000E94C5488EE1820F29DF2B013C019B014B
:1049B000AC01B70182EC9BE00E94C835A3019201D3
:1049C000B60182EC9BE00E94C83531E0E31AF108A1
:1049D0004FEFC41AD40A88E7880E911CA11CB11CA1
:1049E0009FEFE916F90609F0BCCF2091D10E29837B
:1049F000822F81508D31D0F480E600DF6B017C0185
:104A00006DE170E03981631B7109A701960182ECA9
:104A10009BE00E94C8356091D10E70E0625E7F4FCE
:104A2000A701960182EC9BE00E94C83582EC9BE0D6
:104A30000E948E3680912E088F5F80932E088F30D3
:104A400048F08091D10E882319F081508093D10EC7
:104A500010922E084091D10E4983842F81508D31C0
:104A600058F5842F90E09B838A839C01A8E7B0E0EF
:104A70000E9413492DE130E040E050E00E94C5481B
:104A80008EE1820FBBDE6B017C016DE170E02A815B
:104A90003B81621B730BA701960182EC9BE00E9495
:104AA000C8356091D10E70E0625E7F4FA70196011C
:104AB00082EC9BE00E94C83582EC9BE00E948E361F
:104AC00080912E088F5F80932E088F3048F0809160
:104AD000D10E882319F081508093D10E10922E08A8
:104AE0008091CF0EE82FF0E0EE0FFF1FE15BF14F5A
:104AF000318220828F5F803418F48093CF0E02C001
:104B00001092CF0E8091AE079091AF07E1E5FEE0E5
:104B10009C01182F9983419151914217530728F016
:104B20008417950718F4CA0101C09A014EE0EF3CC2
:104B3000F40789F7AC01421B530B4034510518F4BC
:104B4000C901805C9F4FE0914D0EF0914E0E4FE3F6
:104B50004E9FB0014F9F700D1124260F371F06E0A6
:104B6000369527950A95E1F730934E0E20934D0E1A
:104B70006091160270911702469F9001479F300D79
:104B80001124820F931F26E0969587952A95E1F7C9
:104B900090931702809316028AE30E94783D925008
:104BA00097FF03C09195819591098B3091052CF069
:104BB0001C012AE0221A310802C0212C312C8091DC
:104BC00014029091150227E0289FB001299F700DD3
:104BD0001124620D731DA3E075956795AA95E1F701
:104BE00070931502609314024091CA0D5091CB0D41
:104BF000641B750BB6E0660F771FBA95E1F7072EB9
:104C0000000C880B990B2091120230911302241B87
:104C1000350B032E000C440B550B0E94C5483B83FB
:104C20002A832134310524F080E490E09B838A8339
:104C30002A813B8137FF02C01B821A828091D00EED
:104C400090E02A813B818217930714F42093D00EC1
:104C5000812C912C5401EEE1CE2ED12CFDE1EF2ED2
:104C6000F12C8DE190E08E199F092A813B818217FA
:104C7000930784F000E020E040E0B7018DEA9BE07C
:104C80000E943D3620E040E0B6018DEA9BE00E94A4
:104C90003D361BC0C501B4012DE130E040E050E0DD
:104CA0000E94C5488EE1820FA9DD2B013C019B01CA
:104CB000AC01B7018DEA9BE00E94C835A3019201C7
:104CC000B6018DEA9BE00E94C83531E0E31AF10895
:104CD0004FEFC41AD40A88E7880E911CA11CB11C9E
:104CE0009FEFE916F90609F0BCCF2091D00E822F74
:104CF00081508D3158F5822F90E09B838A839C01EF
:104D0000A8E7B0E00E9413492DE130E040E050E018
:104D10000E94C5488EE1820F71DD6B017C016DE15F
:104D200070E02A813B81621B730BA70196018DEA1B
:104D30009BE00E94C8356091D00E70E0625E7F4FAC
:104D4000A70196018DEA9BE00E94C8358DEA9BE0A1
:104D50000E948E368091AD078F5F8093AD078F30B4
:104D600048F08091D00E882319F081508093D00EA6
:104D70001092AD073091D00E3A83832F81508D3140
:104D800058F5832F90E09B838A839C01A8E7B0E0CD
:104D90000E9413492DE130E040E050E00E94C548F8
:104DA0008EE1820F2BDD6B017C016DE170E02A81C9
:104DB0003B81621B730BA70196018DEA9BE00E9469
:104DC000C8356091D00E70E0625E7F4FA7019601FA
:104DD0008DEA9BE00E94C8358DEA9BE00E948E36EA
:104DE0008091AD078F5F8093AD078F3048F0809141
:104DF000D00E882319F081508093D00E1092AD0709
:104E000080914C0EE82FF0E0EE0FFF1FE453F24FBD
:104E1000318220828F5F803418F480934C0E02C060
:104E200010924C0E812F9981EEECFDE06CE47EE057
:104E30009C01419151914817590728F024173507D3
:104E400018F49A0101C0CA016E177F0791F7A901F2
:104E5000481B590B4034510518F49C01205C3F4F0E
:104E6000E091CA0DF091CB0D4FE34E9FB0014F9FE3
:104E7000700D1124860F971F56E0969587955A95C9
:104E8000E1F79093CB0D8093CA0D6091120270915F
:104E90001302469FC001479F900D1124280F391F10
:104EA00066E0369527956A95E1F7309313022093D3
:104EB00012020F900F900F90DF91CF911F910F91E1
:104EC000FF90EF90DF90CF90BF90AF909F908F902A
:104ED0007F906F905F904F903F902F9008954F92EA
:104EE0005F926F927F92AF92BF92CF92DF92EF92DA
:104EF000FF920F93CF93DF938BE30E94783D925004
:104F000097FF03C09195819591098B3091051CF015
:104F1000EC012A9702C0C0E0D0E080911802909185
:104F2000190227E0289FB001299F700D11246C0FF2
:104F30007D1F83E0759567958A95E1F77093190257
:104F40006093180240914D0E50914E0E641B750BEC
:104F500096E0660F771F9A95E1F7072E000C880BF5
:104F6000990B2091160230911702241B350B032E4A
:104F7000000C440B550B0E94C5482134310514F038
:104F800020E430E0790137FF02C0E12CF12C809160
:104F9000D10E90E08E159F0514F4E092D10E412CB5
:104FA000512C3201C12CD12CCE14DF044CF000E086
:104FB00020E040E0B60182EC9BE00E943D3616C046
:104FC0002091C40B3091C50B2150310940E050E0D5
:104FD000C301B2010E94C5488EE1820F0FDC9B0124
:104FE000AC01B60182EC9BE00E94C8352FEFC21ADB
:104FF000D20A88E7480E511C611C711C2CE3C216B2
:10500000D10491F6E090D10E8FEF8E0D8B33D0F45A
:10501000F12C9701A8E7B0E00E9413492091C40B3E
:105020003091C50B2150310940E050E00E94C54845
:105030008EE1820FE3DB9B01AC01B70182EC9BE0C8
:105040000E94C83582EC9BE00E948E3680912E082B
:105050008F5F80932E088F3048F08091D10E882387
:1050600019F081508093D10E10922E088091CF0EAE
:10507000E82FF0E0EE0FFF1FE15BF14FD183C0831B
:105080008F5F803418F48093CF0E02C01092CF0E41
:10509000C091AE07D091AF07E1E5FEE06FEC7EE096
:1050A000CE019E01419151914217530728F0841778
:1050B000950718F4CA0101C09A016E177F0791F78E
:1050C000AC01421B530B4034510518F4C901805CFC
:1050D0009F4FE0914D0EF0914E0E4FE34E9FB00169
:1050E0004F9F700D1124260F371FA6E03695279588
:1050F000AA95E1F730934E0E20934D0E6091160263
:1051000070911702469F9001479F300D1124820F26
:10511000931FB6E096958795BA95E1F7909317029D
:10512000809316028AE30E94783D925097FF03C055
:105130009195819591098B3091052CF07C012AE0A5
:10514000E21AF10802C0E12CF12C80911402909136
:10515000150227E0289FB001299F700D11246E0DC4
:105160007F1DE3E075956795EA95E1F77093150269
:10517000609314024091CA0D5091CB0D641B750BC6
:10518000F6E0660F771FFA95E1F7072E000C880B03
:10519000990B2091120230911302241B350B032E20
:1051A000000C440B550B0E94C5482134310514F006
:1051B00020E430E0690137FF02C0C12CD12C80917E
:1051C000D00E90E08C159D0514F4C092D00E412CA9
:1051D000512C3201A12CB12CAC14BD044CF000E0D8
:1051E00020E040E0B5018DEA9BE00E943D3616C00C
:1051F0002091AF0B3091B00B2150310940E050E0CD
:10520000C301B2010E94C5488EE1820FF7DA9B010B
:10521000AC01B5018DEA9BE00E94C8358FEFA81A5A
:10522000B80A28E7420E511C611C711C8CE3A816B9
:10523000B10491F6C090D00E8FEF8C0D8B33D0F46B
:10524000D12C9601A8E7B0E00E9413492091AF0B42
:105250003091B00B2150310940E050E00E94C54828
:105260008EE1820FCBDA9B01AC01B6018DEA9BE0A7
:105270000E94C8358DEA9BE00E948E368091AD0772
:105280008F5F8093AD078F3048F08091D00E8823D8
:1052900019F081508093D00E1092AD0780914C0E82
:1052A000E82FF0E0EE0FFF1FE453F24FF182E082AF
:1052B0008F5F803418F480934C0E02C010924C0E15
:1052C000EEECFDE04CE45EE0CE0121913191281737
:1052D000390728F0C217D30718F4E90101C0C90142
:1052E0004E175F0791F79E01281B390B20343105BB
:1052F00018F4EC01C05CDF4F6091CA0D7091CB0DCA
:105300002FE3269FA001279F500D1124840F951F86
:1053100036E0969587953A95E1F79093CB0D80937B
:10532000CA0D4091120250911302249FC001259F83
:10533000900D1124C80FD91F46E0D695C7954A9500
:10534000E1F7D0931302C0931202DF91CF910F9136
:10535000FF90EF90DF90CF90BF90AF907F906F90D5
:105360005F904F900895FC018FEC92E091838083D1
:10537000138212828FEF868387838087818782875B
:10538000838781E084871686158615821482809132
:10539000440990914509892B21F4F0934509E09344
:1053A0004409A0915A0DB0915B0D109721F015960C
:1053B000FC93EE931497F0935B0DE0935A0D0895D0
:1053C000FC01DB013C912081230F08F42FEF2083A7
:1053D00011963C9111972181230F08F42FEF21831F
:1053E00012963C912281230F08F42FEF2283089517
:1053F0001F93CF93DF93EC010E948F3F28EE33E0A1
:1054000040E050E00E94F14888819981281B390BC7
:105410008A819B8111E02817390708F410E02817CA
:10542000390718F0CE010E949F3B812FDF91CF9169
:105430001F910895CF92DF92EF92FF921F93CF9327
:10544000DF93EC010E948F3FC880D980EA80FB8007
:10545000DC01CB018C199D09AE09BF09CC80DD8030
:10546000EE80FF8011E08C159D05AE05BF0508F4A8
:1054700010E08C159D05AE05BF0518F0CE010E9409
:10548000AE3B812FDF91CF911F91FF90EF90DF9086
:10549000CF900895409100025091010225E038E03C
:1054A000429FC001439F900D529F900D1124875E33
:1054B000994C9093010280930002890F0895CF9335
:1054C000C82FE8DF8C9FC0011124892FCF91089548
:1054D0002F923F924F925F926F927F928F929F9204
:1054E000AF92BF92CF92DF92EF92FF920F931F93F2
:1054F000CF93DF9300D0CDB7DEB78BE30E94783D2A
:10550000925097FF03C09195819591098B30910539
:105510002CF01C012AE0221A310802C0212C312C67
:10552000809118029091190227E0289FB001299FCD
:10553000700D1124620D731D43E0759567954A95B2
:10554000E1F7709319026093180240914D0E50914B
:105550004E0E641B750BE6E0660F771FEA95E1F7C8
:10556000072E000C880B990B209116023091170220
:10557000241B350B032E000C440B550B0E94C54811
:105580003B832A832134310524F080E490E09B831F
:105590008A832A813B8137FF02C01B821A82809155
:1055A000D10E90E02A813B818217930714F4209357
:1055B000D10E2DEC3CEC4CE45EE360910E02709158
:1055C0000F0280911002909111020E9423494B0119
:1055D0005C0160930E0270930F028093100290930F
:1055E00011022DEC3CEC4CE45EE360910A027091F8
:1055F0000B0280910C0290910D020E9423496B01D5
:105600007C0160930A0270930B0280930C029093CA
:105610000D0220E030E04FE753E4C501B4010E94E1
:10562000204A87FD08C010920E0210920F021092BD
:1056300010021092110220E030E04FE753E4C7015E
:10564000B6010E94204A87FD08C010920A021092FB
:105650000B0210920C0210920D02812C912C54011D
:105660002EE1E22EF12C3DE1C32ED12C8A819B81CB
:105670008816990684F000E020E040E0B60182EC54
:105680009BE00E943D3620E040E0B70182EC9BE0C9
:105690000E943D363FC060910E0270910F028091D2
:1056A0001002909111020E94EF492B01770F6608BA
:1056B000770860910A0270910B0280910C02909120
:1056C0000D020E94EF49CB01770FAA0BBB0B9C0187
:1056D000AD012419350946095709C501B4010E94D5
:1056E000C44B2DE130E040E050E00E94C548822FDD
:1056F000840D84D82B013C019B01AC01B60182ECE6
:105700009BE00E94C835A3019201B70182EC9BE0A7
:105710000E94C83591E0C91AD1082FEFE21AF20AA7
:105720003FEF831A930AA30AB30A4CE3E416F10489
:1057300009F09CCF8091D10E898381508D3158F52D
:105740003981232F30E03B832A83A8E7B0E00E9411
:1057500013492DE130E040E050E00E94C5488EE161
:10576000820F4CD86B017C016DE170E08A819B81D6
:10577000681B790BA701960182EC9BE00E94C8355B
:105780006091D10E70E0625E7F4FA701960182ECBE
:105790009BE00E94C83582EC9BE00E948E3680918F
:1057A0002E088F5F80932E088F3048F08091D10EA5
:1057B000882319F081508093D10E10922E08809189
:1057C000CF0EE82FF0E0EE0FFF1FE15BF14F3182CB
:1057D00020828F5F803418F48093CF0E02C0109225
:1057E000CF0E8091AE079091AF07E1E5FEE09C01FE
:1057F000182F9983419151914817590728F0241780
:10580000350718F49A0101C0CA014EE0EF3CF407D5
:1058100089F7A901481B590B4034510518F49C0124
:10582000205C3F4FE0914D0EF0914E0E4FE34E9FA6
:10583000B0014F9F700D1124860F971F06E09695BB
:1058400087950A95E1F790934E0E80934D0E6091E7
:10585000160270911702469FC001479F900D1124B8
:10586000280F391F86E0369527958A95E1F7309302
:105870001702209316028AE30E94783D925097FF08
:1058800003C09195819591098B3091052CF01C01F5
:105890002AE0221A310802C0212C312C80911402F6
:1058A0009091150227E0289FB001299F700D1124C7
:1058B000620D731DA3E075956795AA95E1F7709346
:1058C0001502609314024091CA0D5091CB0D641BD8
:1058D000750BB6E0660F771FBA95E1F7072E000C3F
:1058E000880B990B2091120230911302241B350B67
:1058F000032E000C440B550B0E94C5483B832A83A2
:105900002134310524F080E490E09B838A832A814E
:105910003B8137FF02C01B821A828091D00E90E03B
:105920002A813B818217930714F42093D00E2DEC2B
:105930003CEC4CE45EE360910E0270910F028091AA
:105940001002909111020E9423494B015C01609367
:105950000E0270930F0280931002909311022DECAF
:105960003CEC4CE45EE360910A0270910B02809182
:105970000C0290910D020E9423496B017C016093FF
:105980000A0270930B0280930C0290930D0220E0A8
:1059900030E04FE753E4C501B4010E94204A87FD7F
:1059A00008C010920E0210920F0210921002109274
:1059B000110220E030E04FE753E4C701B6010E9436
:1059C000204A87FD08C010920A0210920B02109222
:1059D0000C0210920D02812C912C5401EEE1EE2E5E
:1059E000F12CFDE1CF2ED12C8A819B81881699065E
:1059F00084F000E020E040E0B6018DEA9BE00E94E8
:105A00003D3620E040E0B7018DEA9BE00E943D3644
:105A100040C060910E0270910F028091100290912F
:105A200011020E94EF492B01770F660877086091F9
:105A30000A0270910B0280910C0290910D020E945B
:105A4000EF49CB01770FAA0BBB0B9C01AD012419C9
:105A5000350946095709C501B4010E94C44B2DE11F
:105A600030E040E050E00E94C548822F840D0E9443
:105A7000FE232B013C019B01AC01B6018DEA9BE0AA
:105A80000E94C835A3019201B7018DEA9BE00E94F4
:105A9000C83591E0C91AD1082FEFE21AF20A3FEF98
:105AA000831A930AA30AB30A4CE3E416F10409F03B
:105AB0009BCF8091D00E8A8381508D3160F53A81E1
:105AC000232F30E03B832A83A8E7B0E00E941349EC
:105AD0002DE130E040E050E00E94C5488EE1820FA9
